:100000000C94DB000C9403010C9403010C94030189
:100010000C9403010C9403010C9403010C94030150
:100020000C9403010C9403010C94A0080C940F0988
:100030000C9403010C9403010C9403010C94030130
:100040000C9403010C9403010C9403010C94030120
:100050000C9403010C9403010C9403010C94410BC8
:100060000C9403010C9403010C9403010C94030100
:100070000C9403010C9403010C9403010C940301F0
:100080000C9403010C9403010C9403010C940301E0
:100090000C9403010C9403010C9403010C940301D0
:1000A0000C9403010C9403010C940301070605044E
:1000B0000100080A0B0C0D090000000024002700B5
:1000C0002A002D00300000000000250028002B0031
:1000D0002E003100000000002300260029002C0023
:1000E0002F000404040404030405020202020403B2
:1000F00002020202060606060606040402020204C2
:100100000404080201104080401020408040800814
:100110000204018040201002011080102040402085
:100120000000000200090F0000030401000C0000A1
:1001300000000000000000000000000000000008B7
:100140000B0002020200000904000001020200008C
:1001500005240010010524010101042402060524E0
:100160000600010705810310004009040100020A8E
:10017000000000070502024000000705830240005E
:10018000000403090412010002EF0201404123367A
:100190008000010102030141726475696E6F204C99
:1001A0004C430041726475696E6F204C656F6E61DF
:1001B00072646F008B0B11241FBECFEFDAE0DEBF3D
:1001C000CDBF11E0A0E0B1E0E2E6F5E202C00590AB
:1001D0000D92A636B107D9F722E0A6E6B1E001C03C
:1001E0001D92AB3AB207E1F710E0CBEDD0E004C0CE
:1001F0002197FE010E946711CA3DD107C9F70E94ED
:10020000430D0C94AF120C940000CF92DF92EF924A
:10021000FF920F931F93CF93DF93D901E8016A01F7
:10022000F9014217530714F06901FA01882309F410
:1002300040C0CB016C157D050CF4C6019F018E17E3
:100240009F070CF49C01A417B50734F4CF01821B5F
:10025000930B9C012C0D3D1D0D2C000CEE08FF088E
:10026000032E000C440B550B2C193D094E095F0958
:10027000AEEFBFEF0E9439119F01FF0F440B550BEA
:100280002C193D094E095F090E941A11DA01C901B2
:100290008F5F9F47A109B1098883998382E090E02D
:1002A000DF91CF911F910F91FF90EF90DF90CF9052
:1002B000089590E080E0F4CFFC018091C001882394
:1002C00011F13FB7F89482E08093E9002091F200A9
:1002D000822F90E01816190614F481E090E088232C
:1002E00039F0289844E64093BF014091F1004083E3
:1002F000222339F02091F200211103C02BE6209334
:10030000E8003FBF08958FEF9FEF08954091B90136
:100310005091BA012091B7013091B80142175307AB
:10032000B4F49091E8009570E1F39091E80092FDAB
:1003300019C08093F1008091B9019091BA010196A2
:100340008F739927892B19F48EEF8093E8008091A1
:10035000B9019091BA0101969093BA018093B901C5
:1003600081E0089580E00895EF92FF920F931F932C
:10037000CF93DF93F82E192FE62E042F81E0860FFE
:10038000880F0E94860183E00E948601CF2DD12F25
:10039000EC0EFD2EF11CCE15DF05B9F007FF13C0E2
:1003A000FE0184910E948601182F80E00E94860140
:1003B000812321968111EFCFDF91CF911F910F9172
:1003C000FF90EF9008958881EDCF81E0F5CFDF9227
:1003D000EF92FF920F931F93CF93DF93D82E8A0152
:1003E000EB017B01E40EF51ECE15DF0559F0D7FEBB
:1003F00012C0FE0184910E94860121968111F4CFE2
:100400000FEF1FEFC801DF91CF911F910F91FF9068
:10041000EF90DF9008958881EECF2FB7F894877022
:100420008093E9009091E800892F807295FF04C0C5
:100430009091F20080E4891B2FBF0895615030F045
:100440002091F100FC0120830196F8CF289884E6E2
:100450008093BF0108958091AF0181110DC082E0AA
:100460008093AB0184E08093AC011092AE011092B6
:10047000AD0181E08093AF018BEA91E008950F9385
:100480001F93CF93DF931F92CDB7DEB782E08983AE
:1004900042E450E06FE371E080E80E94E7010E94CF
:1004A0002B02DC0112960D911C910115110589F0AA
:1004B000D801ED91FC910280F381E02DBE016F5FC8
:1004C0007F4FC801099597FD04C0F801008511858B
:1004D000ECCF89810F90DF91CF911F910F910895FB
:1004E000CF93DF931F92CDB7DEB76983DC01ED9127
:1004F000FC910280F381E02D41E050E0BE016F5F8E
:100500007F4F09950F90DF91CF91089583E08093FD
:10051000E9008091F200882319F08AE38093E800D3
:10052000089583E00E940D0290E00895CF93DF9339
:100530001F92CDB7DEB7FC018485958597FD08C075
:100540002FEF3FEF358724870F90DF91CF910895EC
:10055000CE0101960E945C01019719F4898190E017
:10056000F3CF8FEF9FEFF0CF0F931F93CF93DF93D6
:100570001F92CDB7DEB78C01FC018485958597FF6E
:100580000BC0CE0101960E945C01019771F4898134
:1005900090E0F80195878487F801848595850F9010
:1005A000DF91CF911F910F9108958FEF9FEFF1CFC2
:1005B000FC018485958597FD0BC09FB7F89482E078
:1005C0008093E9008091F2009FBF90E0019608952A
:1005D0009FB7F89482E08093E9008091F2009FBF7A
:1005E00090E0089581508F3008F047C0E82FF0E088
:1005F000E450FD4F0C94671119031D030B03110305
:1006000015033D033D033D03200326032A032E0368
:1006100034033D033803809180008F7780938000FE
:100620000895809180008F7DF9CF80918000877F31
:10063000F5CF84B58F7784BD089584B58F7DFBCFCA
:10064000809190008F778093900008958091900022
:100650008F7DF9CF80919000877FF5CF8091C0008A
:100660008F778093C00008958091C0008F7DF9CF6F
:100670008091C200877F8093C2000895CF93DF935B
:10068000282F30E0F901E05EFE4F8491F901EF5F21
:10069000FE4FD491F901EE51FF4FC491CC23A1F04C
:1006A00081110E94F202EC2FF0E0EE0FFF1FEC52DE
:1006B000FF4FA591B491EC91ED2381E090E009F416
:1006C00080E0DF91CF91089580E090E0FACF1F9312
:1006D000CF93DF93282F30E0F901E05EFE4F849145
:1006E000F901EF5FFE4FD491F901EE51FF4FC49134
:1006F000CC23A9F0162F81110E94F202EC2FF0E01A
:10070000EE0FFF1FEA53FF4FA591B4918FB7F894F6
:10071000EC91111108C0D095DE23DC938FBFDF91DF
:10072000CF911F910895DE2BF8CFCF93DF9390E008
:10073000FC01EF5FFE4F24918E519F4FFC0184918D
:100740008823D1F090E0880F991FFC01E854FF4FF7
:10075000A591B491FC01EA53FF4FC591D491623049
:1007600071F49FB7F8943C91822F809583238C93EA
:10077000E8812E2B28839FBFDF91CF9108958FB7FB
:10078000F894EC912E2B2C938FBFF6CF8251E82F4B
:10079000F0E0E455FF4FE49190917B008E2F880F9D
:1007A000880F80729F7D892B80937B00E770E064C7
:1007B000E0937C0080917A00806480937A0080913D
:1007C0007A0086FDFCCF80917800909179000895A1
:1007D0003FB7F8948091840190918501A0918601A2
:1007E000B091870126B5A89B05C02F3F19F001964F
:1007F000A11DB11D3FBFBA2FA92F982F8827BC017B
:10080000CD01620F711D811D911D42E0660F771FA2
:10081000881F991F4A95D1F708958F929F92AF92A2
:10082000BF92CF92DF92EF92FF924B015C010E9448
:10083000E8036B017C010E94E8036C197D098E09B5
:100840009F09683E734081059105A8F321E0821A53
:100850009108A108B10888EEC80E83E0D81EE11CFB
:10086000F11C81149104A104B10429F7FF90EF90C9
:10087000DF90CF90BF90AF909F908F9008957F9220
:100880008F929F92AF92BF92CF92DF92EF92FF92A0
:100890000F931F93CF93DF93C82E8B017A01809122
:1008A000C001811110C08FEF9FEFDF91CF911F9199
:1008B0000F91FF90EF90DF90CF90BF90AF909F90FF
:1008C0008F907F9008958091BD0180FF05C0809139
:1008D000E00082608093E000CE2DDF2DD12C8AEFE6
:1008E000B82E8C2D8770982E8C2D8072882E8C2D92
:1008F0008074782E9AE3A92E209719F4DD2009F44C
:1009000052C08C2D0E940D0281110AC0BA94BB20E6
:1009100051F261E070E080E090E00E940D04ECCFC5
:100920008C171D0611F00CF08C2F9FB7F894909245
:10093000E9002091E80025FD02C09FBFDDCF282FF0
:1009400030E0C21BD30B882029F08150A0F0109218
:10095000F100FBCFF801C7FC0AC0815050F0419173
:100960004093F100FACF44914093F10031968150C9
:10097000D0F7020F131FDD2021F0A092E800D12C48
:10098000DCCF8091E80085FD07C0A092E800DD245F
:10099000D394209791F2F3CF209779F6772069F2DC
:1009A000A092E800CACF5D9884E68093BE01C7019B
:1009B0007CCFCF93DF93EC0180911201882331F03B
:1009C00083E00E943F041816190634F081E090E09D
:1009D0009B838A8380E090E0DF91CF9108952FB7C9
:1009E000F8946091800170918101809182019091D1
:1009F00083012FBF0895DC01FB0112962C91129701
:100A0000848195812817190641F491818081813A6A
:100A100031F49D7F81E0913009F080E008958132CA
:100A2000E1F79B3029F482811F968C9381E0089531
:100A30009A3099F7828150968C93F8CFDC01FB01B4
:100A400088E4808389E4818384E482831D969C9179
:100A50001D979F709F5B93831D968D919C9124E0C1
:100A6000969587952A95E1F78F708F5B848385E053
:100A70000895EF92FF920F931F93CF93DF93FB01A3
:100A80002081213889F52381223271F5DC0112960B
:100A90004C91248135814217130631F58C01FC01FC
:100AA000C385D485F12CE12C209791F04C815D8198
:100AB0006A817B818E81811180E80E94E7018F3FEE
:100AC000980759F0E80EF91E0990D881C02DECCF97
:100AD00081E0D8011F968C93C701DF91CF911F91C0
:100AE0000F91FF90EF90089590E080E0F6CFCF93C4
:100AF000DF93CDB7DEB769970FB6F894DEBF0FBEB0
:100B0000CDBFFC01DB018C918F5F8C939E012D5F2B
:100B10003F4F8DE0D9011D928A95E9F729E029839D
:100B200084E08A8391E09D8383E08E832A8721E29B
:100B30002B879C879D879F8722E2288B27E02B8B22
:100B400025E02C8B8E8B20E430E0388F2F8B998F13
:100B500082818B8395858685998B8A8B838180683A
:100B60008D8B49E150E0BE016F5F7F4F80E00E94B6
:100B7000E70169960FB6F894DEBF0FBECDBFDF91D7
:100B8000CF910895CF93DF9380917701811167C052
:100B900081E080936A0180936B0120E731E030931C
:100BA0006D0120936C0110926F0110926E012DE186
:100BB00031E0309367012093660110927201109228
:100BC00071011092740110927301809375018093EA
:100BD000760181EC809370010E942B02FC018181DF
:100BE00090916A01482F490F5527551F48305105EC
:100BF0009CF5A281B381109709F526E631E0338395
:100C000022832081209368018093690180916B0188
:100C1000820F808320916C01A22FB0916D018A2FE9
:100C2000821B8917C8F481813D91C82FD0E0C05044
:100C3000DF4F38838F5F8183F2CFD90118962D91D2
:100C40003C91199721153105C1F726E631E0199637
:100C50003C932E931897D5CF81E08093770186E659
:100C600091E0DF91CF9108958F929F92AF92BF92C2
:100C7000CF92DF92EF92FF920F931F93CF93DF9368
:100C8000CDB7DEB7ADB6BEB68091A6022DB73EB7E2
:100C9000281B31090FB6F8943EBF0FBE2DBF8DB78C
:100CA0009EB701966C01E0907502F12C8091710263
:100CB00090917202D601FC019F01281B390B2E1561
:100CC0003F051CF421912D93F7CF80917602882364
:100CD00059F180916D0290916E0228E097FD09C054
:100CE00068E671E00E9453116DE270E00E945311BA
:100CF000262F80916F029091700268E097FD08C0E6
:100D000068E671E00E9453116DE270E00E94531199
:100D1000F601EE0DFF1D90E1699FB0011124262B15
:100D20002083F70131967F0186010E0D1F1D209152
:100D30007B0230917C024091790250917A0260915D
:100D40005702709158028091770281700E940501CC
:100D5000E80EF91E86010E0D1F1D20917F023091B5
:100D6000800240917D0250917E0260915902709103
:100D70005A0280917702869581700E940501E80EE3
:100D8000F91E86010E0D1F1D2091830230918402F1
:100D9000409181025091820260915B0270915C02ED
:100DA0008091770282FB882780F90E940501E80E76
:100DB000F91E86010E0D1F1D2091870230918802B9
:100DC000409185025091860260915D0270915E02B1
:100DD0008091770283FB882780F90E940501E80E45
:100DE000F91E86010E0D1F1D20918B0230918C0281
:100DF0004091890250918A0260915F027091600275
:100E000080917702829581700E940501E80EF91E9B
:100E100086010E0D1F1D20918F023091900240918E
:100E20008D0250918E0260916102709162028091F8
:100E3000770285FB882780F90E940501E80EF91EDC
:100E400086010E0D1F1D2091930230919402409156
:100E500091025091920260916502709166028091B8
:100E6000780281700E940501E80EF91E86010E0DC0
:100E70001F1D209197023091980240919502509148
:100E80009602609163027091640280917802869567
:100E900081700E940501E80EF91E86010E0D1F1DCE
:100EA00020919B0230919C024091990250919A02AC
:100EB00060916702709168028091780282FB8827B6
:100EC00080F90E940501E80EF91E86010E0D1F1D16
:100ED00020919F023091A00240919D0250919E026C
:100EE0006091690270916A028091780283FB882781
:100EF00080F90E9405018E0D9F1D8601080F191FA4
:100F00002091A3023091A4024091A1025091A2022B
:100F100060916B0270916C02809178028295817071
:100F20000E9405010E94C2054C014091A6028091D9
:100F3000A50250E07A01FFEFEF1AFF0A2DB73EB786
:100F40002E193F090FB6F8943EBF0FBE2DBF0DB747
:100F50001EB70F5F1F4FEDB7FEB78183B601C80103
:100F600001960E94A612F4018381A701B801806452
:100F70000E943F040FB6F894BEBE0FBEADBEDF9117
:100F8000CF911F910F91FF90EF90DF90CF90BF9086
:100F9000AF909F908F900895282F809174026111D7
:100FA0001BC0281768F5E0917102F091720281E090
:100FB00090E0A0E0B0E004C0880F991FAA1FBB1FFB
:100FC0002A95D2F78095908189238083809173023E
:100FD0008823B1F00C943406281790F4E091710244
:100FE000F091720281E090E0A0E0B0E004C0880FD0
:100FF000991FAA1FBB1F2A95D2F72081822BE5CF0C
:101000000895FC0101900020E9F73197AF01481BDA
:10101000590BBC0181EC91E00C94D9048F929F9202
:10102000AF92BF920F931F93CF93DF93CDB7DEB7ED
:10103000A1970FB6F894DEBF0FBECDBF19A2423004
:1010400008F44AE08E010F5D1F4F842E912CB12CC5
:10105000A12CA50194010E94F810E62FB901CA0144
:10106000EA30F4F4E05DD801EE938D01232B242BBC
:10107000252B79F790E080E0109719F0CD010E94C0
:101080000108A1960FB6F894DEBF0FBECDBFDF9169
:10109000CF911F910F91BF90AF909F908F90089527
:1010A000E95CE1CFEF92FF920F931F93CF93DF9311
:1010B00000D000D0CDB7DEB781EC91E00E9496025F
:1010C00081EC91E00E9496028E010F5F1F4F780124
:1010D0008A3341F0F80181938F0181EC91E00E9405
:1010E0009602F6CFC7010E948510182F81EC91E07F
:1010F0000E9496028053990B8230910520F4682F4C
:10110000812F0E94670381EC91E00E9496028A3051
:1011100011F08D30C1F781EC91E00E94B4028A3069
:1011200021F481EC91E00E9496020F900F900F90B5
:101130000F90DF91CF911F910F91FF90EF90089545
:101140001F920F920FB60F9211248F939F9380914D
:10115000E1009091E100937F9093E10083FF0FC045
:101160001092E90091E09093EB001092EC0092E372
:101170009093ED001092C00198E09093F00082FFF0
:1011800022C093E09093E9009091F200992319F026
:101190009AE39093E8009091BE01992341F09091D9
:1011A000BE0191509093BE01911101C05D9A909142
:1011B000BF01992341F09091BF0191509093BF01DD
:1011C000911101C0289A84FF18C08091E2008E7EA0
:1011D00081608093E2008091E1008F7E8093E10046
:1011E0008091BD018E7E80618093BD019F918F9122
:1011F0000F900FBE0F901F90189580FFF7CF809132
:10120000E2008E7E80618093E2008091E1008E7E1C
:101210008093E1008091BD018E7E8160E5CF1F92B9
:101220000F920FB60F921124CF92DF92EF92FF929E
:101230000F931F932F933F934F935F936F937F93DE
:101240008F939F93AF93BF93EF93FF93CF93DF93CE
:10125000CDB7DEB76C97DEBFCDBF1092E9008091AD
:10126000E80083FF25C068E0CE0145960E941E027B
:1012700082EF8093E8008D8987FF39C09091E80064
:1012800090FFFCCF982F907609F034C19E894F894A
:10129000588D2F89F88C911131C0803861F580917B
:1012A000BC018093F1001092F1008EEF8093E80072
:1012B0006C960FB6F894DEBF0FBECDBFDF91CF9115
:1012C000FF91EF91BF91AF919F918F917F916F911E
:1012D0005F914F913F912F911F910F91FF90EF9050
:1012E000DF90CF900F900FBE0F901F9018959EEF3C
:1012F0009093E800C7CF1092F100D5CF913059F408
:101300008111D3CF4130510581F68091BC018D7F91
:101310008093BC01CACF933049F48111C6CF4130CC
:10132000510519F68091BC018260F2CF953041F4ED
:101330008091E80080FFFCCF20682093E300B5CFC8
:10134000963009F0A9C00B8D1C8D22E01092E900A7
:101350001092BA011092B901F2122EC01092B80187
:101360001092B7010E943F021F8299E09983FA828E
:1013700091E09E8390EA98879AEF99872091B9012E
:101380003091BA01275F3F4F3C832B838D831092AE
:10139000E9001092BA011092B9011093B8010093BC
:1013A000B70149E050E0BE016F5F7F4F80E00E94CF
:1013B000E7010E943F0279CF1093B8010093B70173
:1013C0000E942B02DC0112960D911C910115110552
:1013D00009F451C1D801ED91FC910480F581E02D13
:1013E000BE016B5E7F4FC8010995009709F03EC1B1
:1013F000F80100851185EACFF3E0FF120EC08F8956
:10140000882309F440C0823061F440E860E183EA57
:1014100091E00E94B401811148CF81E28093EB00FA
:1014200047CF813029F440E86BE087E991E0F1CFC4
:10143000833099F70E942B02DC011296ED90FC900C
:101440008E010F5F1F4F6801E114F10479F0D7019D
:10145000ED91FC910680F781E02DB801C701099557
:10146000080F111DF701E084F184EECFD8011C9222
:10147000F60101900020E9F73197BF016C197D0951
:1014800040E0C601C6CF61E871E0FB01449150E045
:1014900080E80E94E70109CF973009F4BECF983069
:1014A00021F481E08093F10000CF993009F0FDCE66
:1014B000837009F0B2CFE1E0F1E081E031E096E342
:1014C0002191222371F08093E9003093EB00DF013A
:1014D00011972C912093EC009093ED008F5F873053
:1014E00079F78EE78093EA001092EA008F89809363
:1014F000C001DBCE8B8D9C8D1092E9001092BA0159
:101500001092B9019093B8018093B701898D811130
:1015100092C08E899D89913A49F4813209F07DCF3C
:1015200047E050E06BE071E080E0B3CF913209F02A
:1015300074CF833269F48F89988DB0E0A0E08093F6
:10154000070190930801A0930901B0930A01ADCE61
:10155000803269F48091E80082FFFCCF67E08BE085
:1015600091E00E941E028BEF8093E8009ECE8232B3
:1015700009F09BCE8F8980931201EEEFFFE78591F2
:1015800094918B3F9C4D51F1E0E0F8E080910B018C
:1015900090910C01A0910D01B0910E01803B9440FF
:1015A000A105B105F1F48091120180FD1AC0EE3F52
:1015B0008AE0F80789F587E797E791838083809130
:1015C00060008093BB0188E19BE00FB6F894A8957A
:1015D000809360000FBE9093600067CEEEEFFAE05C
:1015E000D5CF808191818737974709F05ECEA89546
:1015F000809160008861809360008091BB0180933E
:101600006000EE3F2AE0F20789F08091FE0A909197
:10161000FF0A9183808349CE808191818737980723
:1016200051F29093FF0A8093FE0AC5CF1092FF0AF1
:101630001092FE0A3ACE0E942B02DC0112960D9106
:101640001C910115110509F4E8CED801ED91FC912A
:101650000190F081E02DBE016B5E7F4FC8010995BE
:10166000811123CEF80100851185EBCF18161906DC
:101670000CF41BCED2CEF1E0FF12BECE65E871E0D5
:1016800004CF1F920F920FB60F9211242F933F9306
:101690008F939F93AF93BF9380918001909181012D
:1016A000A0918201B091830130917F0123E0230F4B
:1016B0002D3758F50196A11DB11D20937F01809310
:1016C000800190938101A0938201B0938301809166
:1016D000840190918501A0918601B09187010196C6
:1016E000A11DB11D8093840190938501A093860173
:1016F000B0938701BF91AF919F918F913F912F91AF
:101700000F900FBE0F901F90189526E8230F02969A
:10171000A11DB11DD2CFEF92FF920F931F93CF93D4
:10172000DF93CDB7DEB7C659D1090FB6F894DEBF47
:101730000FBECDBF1092C4011092C30188EE93E09A
:10174000A0E0B0E08093C5019093C601A093C701CB
:10175000B093C80189E291E09093C2018093C101E6
:101760008FEF9FEF9093CE018093CD0110921702DF
:10177000109218021092190210921A0210921B0273
:1017800010921C0210921D0210921E0210921F0253
:101790001092200210922102109222021092230233
:1017A00010922402109225021092260210927202C8
:1017B000109271021092750210927A0210927902C0
:1017C0008FEF93E090937C0280937B0210927E02D5
:1017D00010927D029093800280937F021092820289
:1017E0001092810290938402809383021092860269
:1017F00010928502909388028093870210928A0249
:101800001092890290938C0280938B0210928E0228
:1018100010928D029093900280938F021092920208
:1018200010929102909394028093930210929602E8
:1018300010929502909398028093970210929A02C8
:101840001092990290939C0280939B0210929E02A8
:1018500010929D029093A00280939F021092A20288
:101860001092A1029093A4028093A30243E04093BC
:10187000A50238E03093740210927602409377020A
:101880001092780225E0298381E08A8399E09B8386
:101890002C8351EA5D838E8365E86F8348872987AF
:1018A0009A8749E14B878C8749E24D873E8745E11E
:1018B0004F87188A45E2498B8A8B75E77B8B8C8B27
:1018C00065E96D8B3E8B35E53F8B188E35E6398F9C
:1018D0001A8E41E84B8F32E03C8F2D8F8E8F9F8F79
:1018E00088A326E129A38AA380E88BA386E28CA3A0
:1018F0008FEF8DA38FE78EA37FA380E188A769A7D1
:101900003AA75BA71CA69DA780E38EA79FA781E3AC
:1019100088AB49AB3AAB80EC8BAB8CAB84E390E00B
:101920000E9481117C0184E3FE013196D701019070
:101930000D928A95E1F787E090E00E9481118C0179
:10194000DC0111961C921E921396FC92EE92129755
:1019500084E390E015969C938E93149716961C92B0
:101960000E94C205FC01A385B485109709F073C0DD
:101970001487038785859685D80114962D913C910F
:10198000820F931F9687858790917402892F869581
:1019900086958695977009F066C0809375021091C0
:1019A0007502812F90E00E948111909372028093C2
:1019B000710281E090917602911101C080E01C5F7C
:1019C000810F8093A6021092580210925702109233
:1019D0005A021092590210925C0210925B0210920D
:1019E0005E0210925D021092600210925F021092ED
:1019F00062021092610210926402109263021092CD
:101A000066021092650210926802109267021092AC
:101A10006A021092690210926C0210926B028FEFB0
:101A20009FEF90936E0280936D029093700280936B
:101A30006F0290E080E02091750228171906A9F046
:101A4000A4F0E0917102F0917202E80FF91F108288
:101A50000196F1CFDC018D919C9111970097D1F700
:101A60000D931C9387CF8F5F98CFCA56DF4F0FB669
:101A7000F894DEBF0FBECDBFDF91CF911F910F91C4
:101A8000FF90EF900895CF93DF9300D000D0CDB7B3
:101A9000DEB7789484B5826084BD84B5816084BDEE
:101AA00085B5826085BD85B5816085BD80916E00FC
:101AB000816080936E00109281008091810082602D
:101AC000809381008091810081608093810080916A
:101AD000800081608093800080919100826080937B
:101AE000910080919100816080939100809190009D
:101AF0008160809390008091C10084608093C100D8
:101B00008091C10082608093C1008091C10081609A
:101B10008093C1008091C30081608093C300809155
:101B2000C00082608093C0008091C2008160809379
:101B3000C20080917A00846080937A0080917A005C
:101B4000826080937A0080917A00816080937A002D
:101B500080917A00806880937A001092C001109280
:101B6000BC011092BD018091D70081608093D700A5
:101B700080EA8093D80089B5806189BD89B582608B
:101B800089BD09B400FEFDCF61E070E080E090E027
:101B90000E940D048091D8008F7C80618093D800D2
:101BA0008091E000807F8093E0008091E1008E7E54
:101BB0008093E1008DE08093E200559A209A109284
:101BC0005302109254021092550210925602109233
:101BD00013021092140210921502109216020E9423
:101BE000EF046B017C014B015C0128EB820E2BE0C2
:101BF000921EA11CB11C0E94EF046C157D058E0580
:101C00009F0528F086169706A806B906A0F768EE85
:101C100073E080E090E00E940D048FEF9FEF9093BF
:101C2000CE018093CD010E94EF0460931302709364
:101C30001402809315029093160287E391E00E94AC
:101C400001080E94EF046B017C014B015C013AE04A
:101C5000830E911CA11CB11C0E94EF046C157D0524
:101C60008E059F0528F086169706A806B906A0F7E8
:101C700041E0409327020E94EF04609313027093A7
:101C80001402809315029093160288E491E00E945A
:101C9000010862E088E00E94950362E089E00E940A
:101CA000950362E08AE00E94950362E08BE00E9467
:101CB000950362E08CE00E94950361E08DE00E9454
:101CC00095038CE00E943E0390938D0180938C01DC
:101CD00051E0509373020E9434066AE070E080E0A5
:101CE00090E00E940D0422242A9483E0382E0E9462
:101CF000EF04672B682B692B09F4F3C00E94EF04F3
:101D00000091A7011091A8012091A9013091AA0189
:101D1000601771078207930708F4E4C10091A701D7
:101D20001091A8012091A9013091AA016B017C01B9
:101D3000C01AD10AE20AF30A970186010A3F110587
:101D40002105310508F4D5C06093A7017093A8015F
:101D50008093A9019093AA0124EF31E040E050E084
:101D600020931F02309320024093210250932202BD
:101D70001092230210922402109225021092260241
:101D80008091170290911802A0911902B0911A0245
:101D900080931B0290931C02A0931D02B0931E021D
:101DA0000E94EF0460931702709318028093190247
:101DB00090931A0281EC91E00E94B402843611F4EF
:101DC0000E9452080E94EF04609313027093140261
:101DD00080931502909316020E94EF046B017C0120
:101DE0008FE491E00E9401084AE061E070E080E049
:101DF00090E00E940E0886E591E00E9401084AE00A
:101E0000C701B6010E940E0888E591E00E94010812
:101E10008091170290911802A0911902B0911A02B4
:101E2000A7019601281B390B4A0B5B0BCA01B901AC
:101E30004AE00E940E0888E591E00E940108609146
:101E40001702709118028091190290911A02009164
:101E50001B0210911C0220911D0230911E02601B7A
:101E6000710B820B930B4AE00E940E088AE591E009
:101E70000E9401080E94EF044AE00E940E088CE5CF
:101E800091E00E94010883E691E00E9401080E940F
:101E9000EF046B017C014B015C0135E0830E911C6A
:101EA000A11CB11C0E94EF046C157D058E059F05D9
:101EB00028F086169706A806B906A0F781EC91E0EF
:101EC0000E94B402843611F40E9452080E94EF046A
:101ED00060931702709318028093190290931A026C
:101EE00008C00E94EF04623071058105910508F079
:101EF00005CFC0908C01D0908D01D0928B01C09203
:101F00008A018CE00E943E0390938D0180938C01A6
:101F1000960121303105C9F4892BB9F480918801EB
:101F20009091890161E0009709F060E0262F30E090
:101F30003093890120938801892B09F0DCC031E0BE
:101F40003093A6018DE00E9467030EE811E01A822B
:101F50001982C9808C2D885F0E943E0361E0892B25
:101F600009F060E0E62EF12CD8018D919D918D0154
:101F7000D090A601E816F906D9F08C2DDD2091F05D
:101F8000E981FA8180E0EF2B69F029813A8181E0D3
:101F90002130310539F049815A8183E042305105C1
:101FA00009F084E00E94CC07F8013297F182E082C8
:101FB00089819A8101969A838983049751F6DD205D
:101FC00009F49CC01092A5011092A4013092A301C3
:101FD0002092A201C090A401D090A50182E10E94AC
:101FE000C6032C01990F66087708C301B2010E944D
:101FF000AD1060939A0170939B0180939C01909324
:102000009D0183E10E94C6034C01990FAA08BB08F9
:10201000C501B4010E94AD106093960170939701C1
:1020200080939801909399010D2C000CEE08FF0805
:102030002FEF33E040E050E02C193D094E095F09D5
:1020400029833A834B835C83A301920169817A815E
:102050008B819C810E94E8102FEF33E040E050E03C
:102060000E941A1129013A014C0C5D1C6E1C7F1C48
:102070005092A1014092A001A501940169817A8149
:102080008B819C810E94E8102FEF33E040E050E00C
:102090000E941A11C20ED31EE41EF51ED0929F019B
:1020A000C0929E0150925A0240925902809173024E
:1020B00081110E943406D0925802C092570280913A
:1020C000730281110E9434066EE170E080E090E0BE
:1020D0000E940D0440E050E0452B09F408CE0E9418
:1020E000000005CE6093A7017093A8018093A90119
:1020F0009093AA0113CE1092A60124CFA0E0B2E0E3
:10210000B093A501A093A40161CFFC018827992772
:10211000E89421912032E9F3293010F02E30C8F3F1
:102120002B3241F02D3239F4689404C00E94A31080
:10213000820F911D219120532A30C0F31EF49095F7
:1021400081959F4F08957AE0979F902D879F802DCE
:10215000910D11240895E89409C097FB3EF49095E1
:102160008095709561957F4F8F4F9F4F9923A9F070
:10217000F92F96E9BB279395F695879577956795FF
:10218000B795F111F8CFFAF4BB0F11F460FF1BC043
:102190006F5F7F4F8F4F9F4F16C0882311F096E9D6
:1021A00011C0772321F09EE8872F762F05C0662384
:1021B00071F096E8862F70E060E02AF09A95660F3D
:1021C000771F881FDAF7880F9695879597F90895F6
:1021D000DB018F939F930E943911BF91AF91A29F12
:1021E000800D911DA39F900DB29F900D1124089515
:1021F000A1E21A2EAA1BBB1BFD010DC0AA1FBB1F0B
:10220000EE1FFF1FA217B307E407F50720F0A21B7C
:10221000B30BE40BF50B661F771F881F991F1A94E9
:1022200069F760957095809590959B01AC01BD0113
:10223000CF010895052E97FB1EF400940E943111E2
:1022400057FD07D00E94F81007FC03D04EF40C9401
:10225000311150954095309521953F4F4F4F5F4F2D
:10226000089590958095709561957F4F8F4F9F4F02
:1022700008950E944411A59F900DB49F900DA49FB6
:10228000800D911D11240895A29FB001B39FC0013C
:10229000A39F700D811D1124911DB29F700D811D92
:1022A0001124911D089597FB072E16F4009407D072
:1022B00077FD09D00E946D1107FC05D03EF4909582
:1022C00081959F4F0895709561957F4F0895EE0F0A
:1022D000FF1F0590F491E02D0994AA1BBB1B51E14F
:1022E00007C0AA1FBB1FA617B70710F0A61BB70B86
:1022F000881F991F5A95A9F780959095BC01CD012B
:1023000008950F931F93CF93DF938230910510F4BC
:1023100082E090E0E091A902F091AA0230E020E092
:10232000B0E0A0E0309799F42115310509F44AC0D6
:10233000281B390B24303105D8F58A819B81611522
:10234000710589F1FB0193838283FE0111C04081F5
:1023500051810281138148175907E0F04817590746
:1023600099F4109761F012960C93129713961C93A0
:102370003296CF01DF91CF911F910F910895009375
:10238000A9021093AA02F4CF2115310551F042178A
:10239000530738F0A901DB019A01BD01DF01F80103
:1023A000C1CFEF01F9CF9093AA028093A902CDCFBC
:1023B000FE01E20FF31F819391932250310939837B
:1023C0002883D7CF2091A7023091A802232B41F474
:1023D00020911501309116013093A8022093A70295
:1023E00020911301309114012115310541F42DB7CD
:1023F0003EB74091170150911801241B350BE09115
:10240000A702F091A802E217F307A0F42E1B3F0BDE
:102410002817390778F0AC014E5F5F4F2417350756
:1024200048F04E0F5F1F5093A8024093A70281937C
:1024300091939FCFF0E0E0E09CCFCF93DF930097A4
:10244000E9F0FC01329713821282A091A902B091A7
:10245000AA02ED0130E020E01097A1F42081318143
:10246000820F931F2091A7023091A80228173907E5
:1024700009F061C0F093A802E093A702DF91CF9129
:102480000895EA01CE17DF07E8F54A815B819E01D6
:1024900041155105B1F7E901FB83EA83499159914F
:1024A000C40FD51FEC17FD0761F48081918102965E
:1024B000840F951FE90199838883828193819B838F
:1024C0008A83F0E0E0E012968D919C91139700973B
:1024D000B9F52D913C911197CD010296820F931F72
:1024E0002091A7023091A8022817390739F63097B2
:1024F00051F51092AA021092A902B093A802A093DB
:10250000A702BCCFD383C28340815181840F951F22
:10251000C817D90761F44E5F5F4F88819981480FD2
:10252000591F518340838A819B8193838283211524
:10253000310509F0B0CFF093AA02E093A9029ECF33
:10254000FD01DC01C0CF13821282D7CFFB01DC0179
:1025500002C001900D9241505040D8F70895F89470
:02256000FFCFAB
:1025620000C18081000000FFFFFFFF00E1000000CA
:102572000000000000AB02800000000000FB0477B6
:102582000539051E05000000007002D9049102867B
:1025920002D8029602B402564D4450565F317C3145
:1025A2005F564D4450560A00564D4450525F0056F5
:1025B2004D4450455F003A323A007C005F564D442C
:0625C2005045000D0A0067
:00000001FF
