:100000000C94DB000C9403010C9403010C94030189
:100010000C9403010C9403010C9403010C94030150
:100020000C9403010C9403010C946B080C94DA08F3
:100030000C9403010C9403010C9403010C94030130
:100040000C9403010C9403010C9403010C94030120
:100050000C9403010C9403010C9403010C940C0BFD
:100060000C9403010C9403010C9403010C94030100
:100070000C9403010C9403010C9403010C940301F0
:100080000C9403010C9403010C9403010C940301E0
:100090000C9403010C9403010C9403010C940301D0
:1000A0000C9403010C9403010C940301070605044E
:1000B0000100080A0B0C0D090000000024002700B5
:1000C0002A002D00300000000000250028002B0031
:1000D0002E003100000000002300260029002C0023
:1000E0002F000404040404030405020202020403B2
:1000F00002020202060606060606040402020204C2
:100100000404080201104080401020408040800814
:100110000204018040201002011080102040402085
:100120000000000200090F0000030401000C0000A1
:1001300000000000000000000000000000000008B7
:100140000B0002020200000904000001020200008C
:1001500005240010010524010101042402060524E0
:100160000600010705810310004009040100020A8E
:10017000000000070502024000000705830240005E
:10018000000403090412010002EF0201404123367A
:100190008000010102030141726475696E6F204C99
:1001A0004C430041726475696E6F204C656F6E61DF
:1001B00072646F00560B11241FBECFEFDAE0DEBF72
:1001C000CDBF11E0A0E0B1E0E4E8F6E202C00590A6
:1001D0000D92A636B107D9F722E0A6E6B1E001C03C
:1001E0001D92A63AB207E1F710E0CBEDD0E004C0D3
:1001F0002197FE010E94F811CA3DD107C9F70E945C
:10020000000E0C9440130C940000CF92DF92EF92FA
:10021000FF920F931F93CF93DF93D901E8016A01F7
:10022000F9014217530714F06901FA01882309F410
:1002300040C0CB016C157D050CF4C6019F018E17E3
:100240009F070CF49C01A417B50734F4CF01821B5F
:10025000930B9C012C0D3D1D0D2C000CEE08FF088E
:10026000032E000C440B550B2C193D094E095F0958
:10027000AEEFBFEF0E94CA119F01FF0F440B550B59
:100280002C193D094E095F090E94AB11DA01C90121
:100290008F5F9F47A109B1098883998382E090E02D
:1002A000DF91CF911F910F91FF90EF90DF90CF9052
:1002B000089590E080E0F4CFFC018091BB01882399
:1002C00011F13FB7F89482E08093E9002091F200A9
:1002D000822F90E01816190614F481E090E088232C
:1002E00039F0289844E64093BA014091F1004083E8
:1002F000222339F02091F200211103C02BE6209334
:10030000E8003FBF08958FEF9FEF08954091B4013B
:100310005091B5012091B2013091B30142175307BA
:10032000B4F49091E8009570E1F39091E80092FDAB
:1003300019C08093F1008091B4019091B5010196AC
:100340008F739927892B19F48EEF8093E8008091A1
:10035000B4019091B50101969093B5018093B401D9
:1003600081E0089580E00895EF92FF920F931F932C
:10037000CF93DF93F82E192FE62E042F81E0860FFE
:10038000880F0E94860183E00E948601CF2DD12F25
:10039000EC0EFD2EF11CCE15DF05B9F007FF13C0E2
:1003A000FE0184910E948601182F80E00E94860140
:1003B000812321968111EFCFDF91CF911F910F9172
:1003C000FF90EF9008958881EDCF81E0F5CFDF9227
:1003D000EF92FF920F931F93CF93DF93D82E8A0152
:1003E000EB017B01E40EF51ECE15DF0559F0D7FEBB
:1003F00012C0FE0184910E94860121968111F4CFE2
:100400000FEF1FEFC801DF91CF911F910F91FF9068
:10041000EF90DF9008958881EECF2FB7F894877022
:100420008093E9009091E800892F807295FF04C0C5
:100430009091F20080E4891B2FBF0895615030F045
:100440002091F100FC0120830196F8CF289884E6E2
:100450008093BA0108958091AA0181110DC082E0B4
:100460008093A60184E08093A7011092A9011092C5
:10047000A80181E08093AA0186EA91E008950F9394
:100480001F93CF93DF931F92CDB7DEB782E08983AE
:1004900042E450E06FE371E080E80E94E7010E94CF
:1004A0002B02DC0112960D911C910115110589F0AA
:1004B000D801ED91FC910280F381E02DBE016F5FC8
:1004C0007F4FC801099597FD04C0F801008511858B
:1004D000ECCF89810F90DF91CF911F910F910895FB
:1004E000CF93DF931F92CDB7DEB76983DC01ED9127
:1004F000FC910280F381E02D41E050E0BE016F5F8E
:100500007F4F09950F90DF91CF91089583E08093FD
:10051000E9008091F200882319F08AE38093E800D3
:10052000089583E00E940D0290E00895CF93DF9339
:100530001F92CDB7DEB7FC018485958597FD08C075
:100540002FEF3FEF358724870F90DF91CF910895EC
:10055000CE0101960E945C01019719F4898190E017
:10056000F3CF8FEF9FEFF0CF0F931F93CF93DF93D6
:100570001F92CDB7DEB78C01FC018485958597FF6E
:100580000BC0CE0101960E945C01019771F4898134
:1005900090E0F80195878487F801848595850F9010
:1005A000DF91CF911F910F9108958FEF9FEFF1CFC2
:1005B000FC018485958597FD0BC09FB7F89482E078
:1005C0008093E9008091F2009FBF90E0019608952A
:1005D0009FB7F89482E08093E9008091F2009FBF7A
:1005E00090E0089581508F3008F047C0E82FF0E088
:1005F000E450FD4F0C94F81119031D030B03110374
:1006000015033D033D033D03200326032A032E0368
:1006100034033D033803809180008F7780938000FE
:100620000895809180008F7DF9CF80918000877F31
:10063000F5CF84B58F7784BD089584B58F7DFBCFCA
:10064000809190008F778093900008958091900022
:100650008F7DF9CF80919000877FF5CF8091C0008A
:100660008F778093C00008958091C0008F7DF9CF6F
:100670008091C200877F8093C2000895CF93DF935B
:10068000282F30E0F901E05EFE4F8491F901EF5F21
:10069000FE4FD491F901EE51FF4FC491CC23A1F04C
:1006A00081110E94F202EC2FF0E0EE0FFF1FEC52DE
:1006B000FF4FA591B491EC91ED2381E090E009F416
:1006C00080E0DF91CF91089580E090E0FACF1F9312
:1006D000CF93DF93282F30E0F901E05EFE4F849145
:1006E000F901EF5FFE4FD491F901EE51FF4FC49134
:1006F000CC23A9F0162F81110E94F202EC2FF0E01A
:10070000EE0FFF1FEA53FF4FA591B4918FB7F894F6
:10071000EC91111108C0D095DE23DC938FBFDF91DF
:10072000CF911F910895DE2BF8CFCF93DF9390E008
:10073000FC01EF5FFE4F24918E519F4FFC0184918D
:100740008823D1F090E0880F991FFC01E854FF4FF7
:10075000A591B491FC01EA53FF4FC591D491623049
:1007600071F49FB7F8943C91822F809583238C93EA
:10077000E8812E2B28839FBFDF91CF9108958FB7FB
:10078000F894EC912E2B2C938FBFF6CF8251E82F4B
:10079000F0E0E455FF4FE49190917B008E2F880F9D
:1007A000880F80729F7D892B80937B00E770E064C7
:1007B000E0937C0080917A00806480937A0080913D
:1007C0007A0086FDFCCF80917800909179000895A1
:1007D0003FB7F8948091840190918501A0918601A2
:1007E000B091870126B5A89B05C02F3F19F001964F
:1007F000A11DB11D3FBFBA2FA92F982F8827BC017B
:10080000CD01620F711D811D911D42E0660F771FA2
:10081000881F991F4A95D1F708958F929F92AF92A2
:10082000BF92CF92DF92EF92FF924B015C010E9448
:10083000E8036B017C010E94E8036C197D098E09B5
:100840009F09683E734081059105A8F321E0821A53
:100850009108A108B10888EEC80E83E0D81EE11CFB
:10086000F11C81149104A104B10429F7FF90EF90C9
:10087000DF90CF90BF90AF909F908F9008957F9220
:100880008F929F92AF92BF92CF92DF92EF92FF92A0
:100890000F931F93CF93DF93C82E8B017A01809122
:1008A000BB01811110C08FEF9FEFDF91CF911F919E
:1008B0000F91FF90EF90DF90CF90BF90AF909F90FF
:1008C0008F907F9008958091B80180FF05C080913E
:1008D000E00082608093E000CE2DDF2DD12C8AEFE6
:1008E000B82E8C2D8770982E8C2D8072882E8C2D92
:1008F0008074782E9AE3A92E209719F4DD2009F44C
:1009000052C08C2D0E940D0281110AC0BA94BB20E6
:1009100051F261E070E080E090E00E940D04ECCFC5
:100920008C171D0611F00CF08C2F9FB7F894909245
:10093000E9002091E80025FD02C09FBFDDCF282FF0
:1009400030E0C21BD30B882029F08150A0F0109218
:10095000F100FBCFF801C7FC0AC0815050F0419173
:100960004093F100FACF44914093F10031968150C9
:10097000D0F7020F131FDD2021F0A092E800D12C48
:10098000DCCF8091E80085FD07C0A092E800DD245F
:10099000D394209791F2F3CF209779F6772069F2DC
:1009A000A092E800CACF5D9884E68093B901C701A0
:1009B0007CCFCF93DF93EC0180911201882331F03B
:1009C00083E00E943F041816190634F081E090E09D
:1009D0009B838A8380E090E0DF91CF9108952FB7C9
:1009E000F8946091800170918101809182019091D1
:1009F00083012FBF0895DC01FB0112962C91129701
:100A0000848195812817190641F491818081813A6A
:100A100031F49D7F81E0913009F080E008958132CA
:100A2000E1F79B3029F482811F968C9381E0089531
:100A30009A3099F7828150968C93F8CFDC01FB01B4
:100A400088E4808389E4818384E482831D969C9179
:100A50001D979F709F5B93831D968D919C9124E0C1
:100A6000969587952A95E1F78F708F5B848385E053
:100A70000895EF92FF920F931F93CF93DF93FB01A3
:100A80002081213889F52381223271F5DC0112960B
:100A90004C91248135814217130631F58C01FC01FC
:100AA000C385D485F12CE12C209791F04C815D8198
:100AB0006A817B818E81811180E80E94E7018F3FEE
:100AC000980759F0E80EF91E0990D881C02DECCF97
:100AD00081E0D8011F968C93C701DF91CF911F91C0
:100AE0000F91FF90EF90089590E080E0F6CFCF93C4
:100AF000DF93CDB7DEB769970FB6F894DEBF0FBEB0
:100B0000CDBFFC01DB018C918F5F8C939E012D5F2B
:100B10003F4F8DE0D9011D928A95E9F729E029839D
:100B200084E08A8391E09D8383E08E832A8721E29B
:100B30002B879C879D879F8722E2288B27E02B8B22
:100B400025E02C8B8E8B20E430E0388F2F8B998F13
:100B500082818B8395858685998B8A8B838180683A
:100B60008D8B49E150E0BE016F5F7F4F80E00E94B6
:100B7000E70169960FB6F894DEBF0FBECDBFDF91D7
:100B8000CF910895CF93DF9380917701811167C052
:100B900081E080936A0180936B0120E731E030931C
:100BA0006D0120936C0110926F0110926E012DE186
:100BB00031E0309367012093660110927201109228
:100BC00071011092740110927301809375018093EA
:100BD000760181EC809370010E942B02FC018181DF
:100BE00090916A01482F490F5527551F48305105EC
:100BF0009CF5A281B381109709F526E631E0338395
:100C000022832081209368018093690180916B0188
:100C1000820F808320916C01A22FB0916D018A2FE9
:100C2000821B8917C8F481813D91C82FD0E0C05044
:100C3000DF4F38838F5F8183F2CFD90118962D91D2
:100C40003C91199721153105C1F726E631E0199637
:100C50003C932E931897D5CF81E08093770186E659
:100C600091E0DF91CF9108958F929F92AF92BF92C2
:100C7000CF92DF92EF92FF920F931F93CF93DF9368
:100C8000CDB7DEB7ADB6BEB68091A1022DB73EB7E7
:100C9000281B31090FB6F8943EBF0FBE2DBF8DB78C
:100CA0009EB701966C01E0907002F12C80916C026D
:100CB00090916D02D601FC019F01281B390B2E1566
:100CC0003F051CF421912D93F7CF80917102882369
:100CD00059F1809168029091690228E097FD09C05E
:100CE00068E671E00E94E4116DE270E00E94E41198
:100CF000262F80916A0290916B0268E097FD08C0F0
:100D000068E671E00E94E4116DE270E00E94E41177
:100D1000F601EE0DFF1D90E1699FB0011124262B15
:100D20002083F70131967F0186010E0D1F1D209152
:100D30007602309177024091740250917502609171
:100D40005202709153028091720281700E940501DB
:100D5000E80EF91E86010E0D1F1D20917A023091BA
:100D60007B02409178025091790260915402709117
:100D7000550280917202869581700E940501E80EED
:100D8000F91E86010E0D1F1D20917E0230917F02FB
:100D900040917C0250917D02609156027091570201
:100DA0008091720282FB882780F90E940501E80E7B
:100DB000F91E86010E0D1F1D2091820230918302C3
:100DC00040918002509181026091580270915902C5
:100DD0008091720283FB882780F90E940501E80E4A
:100DE000F91E86010E0D1F1D20918602309187028B
:100DF000409184025091850260915A0270915B0289
:100E000080917202829581700E940501E80EF91EA0
:100E100086010E0D1F1D20918A0230918B02409198
:100E200088025091890260915C0270915D0280910C
:100E3000720285FB882780F90E940501E80EF91EE1
:100E400086010E0D1F1D20918E0230918F02409160
:100E50008C0250918D0260916002709161028091CC
:100E6000730281700E940501E80EF91E86010E0DC5
:100E70001F1D209192023091930240919002509157
:100E8000910260915E0270915F028091730286957B
:100E900081700E940501E80EF91E86010E0D1F1DCE
:100EA00020919602309197024091940250919502C0
:100EB00060916202709163028091730282FB8827C5
:100EC00080F90E940501E80EF91E86010E0D1F1D16
:100ED00020919A0230919B02409198025091990280
:100EE00060916402709165028091730283FB882790
:100EF00080F90E9405018E0D9F1D8601080F191FA4
:100F000020919E0230919F0240919C0250919D023F
:100F10006091660270916702809173028295817080
:100F20000E9405010E94C2054C014091A1028091DE
:100F3000A00250E07A01FFEFEF1AFF0A2DB73EB78B
:100F40002E193F090FB6F8943EBF0FBE2DBF0DB747
:100F50001EB70F5F1F4FEDB7FEB78183B601C80103
:100F600001960E943713F4018381A701B8018064C0
:100F70000E943F040FB6F894BEBE0FBEADBEDF9117
:100F8000CF911F910F91FF90EF90DF90CF90BF9086
:100F9000AF909F908F900895FC0101900020E9F799
:100FA0003197AF01481B590BBC018CEB91E00C94BD
:100FB000D9048F929F92AF92BF920F931F93CF93BA
:100FC000DF93CDB7DEB7A1970FB6F894DEBF0FBEA3
:100FD000CDBF19A2423008F44AE08E010F5D1F4FC9
:100FE000842E912CB12CA12CA50194010E94891171
:100FF000E62FB901CA01EA30F4F4E05DD801EE93BE
:101000008D01232B242B252B79F790E080E010977E
:1010100019F0CD010E94CC07A1960FB6F894DEBF5F
:101020000FBECDBFDF91CF911F910F91BF90AF90B9
:101030009F908F900895E95CE1CFEF92FF920F931C
:101040001F93CF93DF9300D000D0CDB7DEB78CEBEA
:1010500091E00E9496028CEB91E00E9496028E0134
:101060000F5F1F4F78018A3341F0F80181938F01A0
:101070008CEB91E00E949602F6CFC7010E942611E8
:10108000182F8CEB91E00E9496028053990B8230CE
:10109000910520F4682F812F0E9467038CEB91E06B
:1010A0000E9496028A3011F08D30C1F78CEB91E0EE
:1010B0000E94B4028A3021F48CEB91E00E949602E7
:1010C0000F900F900F900F90DF91CF911F910F9184
:1010D000FF90EF9008951F920F920FB60F92112478
:1010E0008F939F938091E1009091E100937F909383
:1010F000E10083FF0FC01092E90091E09093EB00B4
:101100001092EC0092E39093ED001092BB0198E0F6
:101110009093F00082FF22C093E09093E9009091B9
:10112000F200992319F09AE39093E8009091B901A5
:10113000992341F09091B90191509093B901911187
:1011400001C05D9A9091BA01992341F09091BA0142
:1011500091509093BA01911101C0289A84FF18C050
:101160008091E2008E7E81608093E2008091E100B8
:101170008F7E8093E1008091B8018E7E80618093A4
:10118000B8019F918F910F900FBE0F901F901895EF
:1011900080FFF7CF8091E2008E7E80618093E20035
:1011A0008091E1008E7E8093E1008091B8018E7E77
:1011B0008160E5CF1F920F920FB60F921124CF924C
:1011C000DF92EF92FF920F931F932F933F934F93D2
:1011D0005F936F937F938F939F93AF93BF93EF939F
:1011E000FF93CF93DF93CDB7DEB76C97DEBFCDBF54
:1011F0001092E9008091E80083FF25C068E0CE01ED
:1012000045960E941E0282EF8093E8008D8987FF39
:1012100039C09091E80090FFFCCF982F907609F0AC
:1012200034C19E894F89588D2F89F88C911131C016
:10123000803861F58091B7018093F1001092F10040
:101240008EEF8093E8006C960FB6F894DEBF0FBE69
:10125000CDBFDF91CF91FF91EF91BF91AF919F9162
:101260008F917F916F915F914F913F912F911F913E
:101270000F91FF90EF90DF90CF900F900FBE0F90E7
:101280001F9018959EEF9093E800C7CF1092F10041
:10129000D5CF913059F48111D3CF4130510581F62A
:1012A0008091B7018D7F8093B701CACF933049F405
:1012B0008111C6CF4130510519F68091B701826086
:1012C000F2CF953041F48091E80080FFFCCF206898
:1012D0002093E300B5CF963009F0A9C00B8D1C8D8B
:1012E00022E01092E9001092B5011092B401F212BE
:1012F0002EC01092B3011092B2010E943F021F82D1
:1013000099E09983FA8291E09E8390EA98879AEF18
:1013100099872091B4013091B501275F3F4F3C83FD
:101320002B838D831092E9001092B5011092B401C5
:101330001093B3010093B20149E050E0BE016F5F2A
:101340007F4F80E00E94E7010E943F0279CF109317
:10135000B3010093B2010E942B02DC0112960D91A1
:101360001C910115110509F451C1D801ED91FC91B1
:101370000480F581E02DBE016B5E7F4FC8010995A9
:10138000009709F03EC1F80100851185EACFF3E02E
:10139000FF120EC08F89882309F440C0823061F4A7
:1013A00040E860E183EA91E00E94B401811148CFF6
:1013B00081E28093EB0047CF813029F440E86BE075
:1013C00087E991E0F1CF833099F70E942B02DC018D
:1013D0001296ED90FC908E010F5F1F4F6801E11493
:1013E000F10479F0D701ED91FC910680F781E02DB1
:1013F000B801C7010995080F111DF701E084F184B8
:10140000EECFD8011C92F60101900020E9F7319748
:10141000BF016C197D0940E0C601C6CF61E871E0EB
:10142000FB01449150E080E80E94E70109CF97302A
:1014300009F4BECF983021F481E08093F10000CF11
:10144000993009F0FDCE837009F0B2CFE1E0F1E010
:1014500081E031E096E32191222371F08093E9004D
:101460003093EB00DF0111972C912093EC009093C7
:10147000ED008F5F873079F78EE78093EA00109256
:10148000EA008F898093BB01DBCE8B8D9C8D1092FF
:10149000E9001092B5011092B4019093B3018093CA
:1014A000B201898D811192C08E899D89913A49F44A
:1014B000813209F07DCF47E050E06BE071E080E0E1
:1014C000B3CF913209F074CF833269F48F89988D4C
:1014D000B0E0A0E08093070190930801A093090178
:1014E000B0930A01ADCE803269F48091E80082FFAA
:1014F000FCCF67E08BE091E00E941E028BEF8093AF
:10150000E8009ECE823209F09BCE8F898093120133
:10151000EEEFFFE7859194918B3F9C4D51F1E0E018
:10152000F8E080910B0190910C01A0910D01B09118
:101530000E01803B9440A105B105F1F480911201A8
:1015400080FD1AC0EE3F8AE0F80789F587E797E744
:1015500091838083809160008093B60188E19BE055
:101560000FB6F894A895809360000FBE909360002A
:1015700067CEEEEFFAE0D5CF80819181873797472C
:1015800009F05ECEA895809160008861809360002C
:101590008091B60180936000EE3F2AE0F20789F067
:1015A0008091FE0A9091FF0A9183808349CE8081C9
:1015B00091818737980751F29093FF0A8093FE0A32
:1015C000C5CF1092FF0A1092FE0A3ACE0E942B025B
:1015D000DC0112960D911C910115110509F4E8CE5C
:1015E000D801ED91FC910190F081E02DBE016B5E80
:1015F0007F4FC8010995811123CEF801008511851F
:10160000EBCF181619060CF41BCED2CEF1E0FF1268
:10161000BECE65E871E004CF1F920F920FB60F9215
:1016200011242F933F938F939F93AF93BF938091F8
:10163000800190918101A0918201B091830130914C
:101640007F0123E0230F2D3758F50196A11DB11D11
:1016500020937F018093800190938101A093820168
:10166000B09383018091840190918501A0918601BE
:10167000B09187010196A11DB11D809384019093C3
:101680008501A0938601B0938701BF91AF919F918F
:101690008F913F912F910F900FBE0F901F90189533
:1016A00026E8230F0296A11DB11DD2CFCF92DF9263
:1016B000EF92FF920F931F93CF93DF93CDB7DEB7D7
:1016C000C659D1090FB6F894DEBF0FBECDBF109238
:1016D000BF011092BE0188EE93E0A0E0B0E08093DD
:1016E000C0019093C101A093C201B093C30189E2EC
:1016F00091E09093BD018093BC018FEF9FEF909399
:10170000C9018093C8011092120210921302109224
:1017100014021092150210921602109217021092E3
:1017200018021092190210921A0210921B021092C3
:101730001C0210921D0210921E0210921F021092A3
:1017400020021092210210926D0210926C021092EF
:10175000700210927502109274028FEF93E09093D2
:101760007702809376021092790210927802909319
:101770007B0280937A0210927D0210927C029093F9
:101780007F0280937E0210928102109280029093D9
:1017900083028093820210928502109284029093B9
:1017A0008702809386021092890210928802909399
:1017B0008B0280938A0210928D0210928C02909379
:1017C0008F0280938E021092910210929002909359
:1017D0009302809392021092950210929402909339
:1017E0009702809396021092990210929802909319
:1017F0009B0280939A0210929D0210929C029093F9
:101800009F0280939E0253E05093A00230E23093F7
:101810006F0222E0209371028FE3809372028FE1C6
:101820008093730245E0498391E09A8389E08B833A
:10183000F4E0FC83E1EAED839E8365E86F835887DB
:1018400049878A8759E15B879C8759E25D873E8794
:1018500015E11F87188AB5E2B98B9A8B65E76B8B08
:101860009C8B55E95D8B3E8B35E53F8B188EA5E64D
:10187000A98F1A8E31E83B8F2C8F4D8F9E8F8F8FC3
:1018800079E3C72EC8A219A31AA2BBA307E0D02EE2
:10189000DCA275E37DA31EA206E4E02EEFA20BE31B
:1018A000F02EF8A699A7AAA704E10BA76CA7FDA79D
:1018B0005EA79FA738AB29AB8AABCBAA1CAB1DAAEE
:1018C000BEABDFAA78AF19AEEAAEFBAE9CAFADAF50
:1018D0000EAF6FAF2196FFAF219722965FAF229791
:1018E00023969FAF239724963FAF249725962FAF3B
:1018F000259726968FAF269727969FAF2797F6E1D5
:10190000FF2E2896FFAE289729969FAF299700E8CB
:101910002A960FAF2A9716E22B961FAF2B97BFEF91
:101920002C96BFAF2C97AFE72D96AFAF2D972E9685
:101930006FAF2E97F0E12F96FFAF2F9760965FAFB6
:1019400060970F2EF6E0EF2EF02D6196EFAE6197C7
:101950006296EFAF629763961FAE639764968FAF00
:1019600064970F2EF0E3EF2EF02D6596EFAE65979E
:1019700066968FAF66970F2EF1E3EF2EF02D6796E8
:10198000EFAE679768968FAF68970F2EF2E3EF2E52
:10199000F02D6996EFAE69976A968FAF6A970F2E12
:1019A000F3E3EF2EF02D6B96EFAE6B976C968FAF47
:1019B0006C970F2EF4E3EF2EF02D6D96EFAE6D9732
:1019C0006E968FAF6E976F967FAF6F97A0963FAF73
:1019D000A097A1962FAFA19770ECA2967FAFA29788
:1019E000A3964FAFA397A4962FAFA497A596FFAE4B
:1019F000A597A6969FAFA697A7960FAFA797A8966D
:101A00001FAFA897A996BFAFA997AA96AFAFAA97FD
:101A1000AB966FAFAB97AC96FFAFAC97AD965FAFA1
:101A2000AD97AE964FAFAE97AF96EFAFAF97E0964C
:101A30001FAEE097E1968FAFE1979AEBE2969FAFEA
:101A4000E297E3968FAFE3979BEBE4969FAFE49723
:101A5000E5968FAFE59794ECE6969FAFE697E7960D
:101A60008FAFE79795ECE8969FAFE897E9968FAF31
:101A7000E99788ECEA968FAFEA97EB963FAFEB9742
:101A8000EC962FAFEC97ED967FAFED97EE967FAF8C
:101A9000EE978DE790E00E9412127C018DE7FE0127
:101AA0003196D70101900D928A95E1F787E090E099
:101AB0000E9412128C01DC0111961C921E92139648
:101AC000FC92EE9212978DE790E015969C938E9380
:101AD000149716961C920E94C205FC01A385B4853A
:101AE000109709F073C01487038785859685D80100
:101AF00014962D913C91820F931F96878587909124
:101B00006F02892F869586958695977009F066C035
:101B10008093700210917002812F90E00E94121247
:101B200090936D0280936C0281E09091710291110B
:101B300001C080E01A5E810F8093A10210925302CF
:101B400010925202109255021092540210925702B3
:101B500010925602109259021092580210925B0293
:101B600010925A0210925D0210925C0210925F0273
:101B700010925E0210926102109260021092630253
:101B80001092620210926502109264021092670233
:101B9000109266028FEF9FEF909369028093680224
:101BA00090936B0280936A0290E080E02091700233
:101BB00028171906A9F0A4F0E0916C02F0916D02CB
:101BC000E80FF91F10820196F1CFDC018D919C91F5
:101BD00011970097D1F70D931C9387CF8F5F98CF04
:101BE000CA56DF4F0FB6F894DEBF0FBECDBFDF91F0
:101BF000CF911F910F91FF90EF90DF90CF900895BC
:101C0000789484B5826084BD84B5816084BD85B5D7
:101C1000826085BD85B5816085BD80916E008160E3
:101C200080936E0010928100809181008260809389
:101C3000810080918100816080938100809180008B
:101C400081608093800080919100826080939100F8
:101C500080919100816080939100809190008160DB
:101C6000809390008091C10084608093C100809136
:101C7000C10082608093C1008091C1008160809327
:101C8000C1008091C30081608093C3008091C00037
:101C900082608093C0008091C20081608093C20006
:101CA00080917A00846080937A0080917A008260CB
:101CB00080937A0080917A00816080937A0080918D
:101CC0007A00806880937A001092BB011092B7016D
:101CD0001092B8018091D70081608093D70080EA8C
:101CE0008093D80089B5806189BD89B5826089BD3E
:101CF00009B400FEFDCF61E070E080E090E00E945A
:101D00000D048091D8008F7C80618093D8008091F1
:101D1000E000807F8093E0008091E1008E7E8093E0
:101D2000E1008DE08093E200559A209A10924E02D5
:101D300010924F02109250021092510210920E0215
:101D400010920F0210921002109211020E94EF04E2
:101D50006B017C014B015C0128EB820E2BE0921E93
:101D6000A11CB11C0E94EF046C157D058E059F051A
:101D700028F086169706A806B906A0F768EE73E065
:101D800080E090E00E940D048FEF9FEF9093C901D7
:101D90008093C8010E94EF0460930E0270930F02BB
:101DA000809310029093110287E391E00E94CC0788
:101DB0000E94EF046B017C014B015C013AE0830E51
:101DC000911CA11CB11C0E94EF046C157D058E05B1
:101DD0009F0528F086169706A806B906A0F7C1E069
:101DE000C09322020E94EF0460930E0270930F02D0
:101DF000809310029093110288E491E00E94CC0736
:101E000062E088E00E94950362E089E00E94950309
:101E100062E08AE00E94950362E08BE00E949503F5
:101E200062E08CE00E94950361E08DE00E949503E2
:101E30008CE00E943E039093930180939201109254
:101E400075021092740288EE93E09093770280936B
:101E50007602109279021092780290937B0280931E
:101E60007A02C0936E020E943406812C912C540198
:101E7000839420E0222E20E0322E0E94EF04672B74
:101E8000682B692B09F4F3C00E94EF040091A201B2
:101E90001091A3012091A4013091A5016017710751
:101EA0008207930708F4A9C10091A2011091A30130
:101EB0002091A4013091A5016B017C01C01AD10AC7
:101EC000E20AF30A970186010A3F1105210531054F
:101ED00008F4D5C06093A2017093A3018093A4017C
:101EE0009093A50124EF31E040E050E020931A02E6
:101EF00030931B0240931C0250931D0210921E024D
:101F000010921F0210922002109221028091120260
:101F100090911302A0911402B091150280931602C1
:101F200090931702A0931802B09319020E94EF0435
:101F3000609312027093130280931402909315021F
:101F40008CEB91E00E94B402843611F40E941D08CB
:101F50000E94EF0460930E0270930F0280931002B0
:101F6000909311020E94EF046B017C018FE491E0D9
:101F70000E94CC074AE061E070E080E090E00E94BF
:101F8000D90786E591E00E94CC074AE0C701B60177
:101F90000E94D90788E591E00E94CC078091120247
:101FA00090911302A0911402B0911502A70196011D
:101FB000281B390B4A0B5B0BCA01B9014AE00E948E
:101FC000D90788E591E00E94CC07609112027091D8
:101FD0001302809114029091150200911602109143
:101FE00017022091180230911902601B710B820BAD
:101FF000930B4AE00E94D9078AE591E00E94CC0742
:102000000E94EF044AE00E94D9078CE591E00E940B
:10201000CC0783E691E00E94CC070E94EF046B019D
:102020007C012B013C0135E0430E511C611C711CED
:102030000E94EF046C157D058E059F0528F046165D
:10204000570668067906A0F78CEB91E00E94B4026F
:10205000843611F40E941D080E94EF04609312025E
:1020600070931302809314029093150208C00E948B
:10207000EF04623071058105910508F005CF80916C
:10208000A0019091A101019709F0C0C04AE050E081
:1020900050939F0140939E0188EE93E090939D01A1
:1020A00080939C0182E10E94C6037C01BC01990FD0
:1020B000880B990B0E944E116093980170939901BF
:1020C00080939A0190939B0183E10E94C6038C0147
:1020D000BC01990F880B990B0E944E1160939401DB
:1020E00070939501809396019093970188E8682EEC
:1020F00081E0782EE30198E0D92E8D2D0E943E03D9
:1021000021E030E0892B11F030E020E089919991B5
:102110002817390721F0FE01329731832083D394A9
:10212000BCE0DB12EACFD0E0C0E0F30181919191F5
:102130003F0120916F02019709F073C0C217B0F4FC
:10214000E0916C02F0916D022081D501C4010C2E4A
:1021500004C0880F991FAA1FBB1F0A94D2F7822BB5
:10216000808380916E0281110E9434062196C430D2
:10217000D105D9F6C0919201D0919301D0939101EC
:10218000C09390018CE00E943E0390939301809352
:102190009201219799F4892B89F461E08091A00143
:1021A0009091A101892B09F060E0862F90E0909337
:1021B000A1018093A0018DE00E946703F092550277
:1021C000E092540280916E0281110E9434061093B5
:1021D00053020093520280916E0281110E943406D4
:1021E00064E170E080E090E00E940D04211431046D
:1021F00009F443CE0E9400003CCE6093A20170938C
:10220000A3018093A4019093A5014ECE10929F014B
:1022100010929E01A0E0B2E0B0939D01A0939C01BA
:1022200041CFC21708F0A2CFE0916C02F0916D028D
:10223000D501C4010C2E04C0880F991FAA1FBB1F13
:102240000A94D2F78095908189238ACFFC01882750
:102250009927E89421912032E9F3293010F02E30AB
:10226000C8F32B3241F02D3239F4689404C00E9437
:102270004411820F911D219120532A30C0F31EF486
:10228000909581959F4F08957AE0979F902D879F15
:10229000802D910D11240895E89409C097FB3EF418
:1022A00090958095709561957F4F8F4F9F4F9923A3
:1022B000A9F0F92F96E9BB279395F6958795779521
:1022C0006795B795F111F8CFFAF4BB0F11F460FFE1
:1022D0001BC06F5F7F4F8F4F9F4F16C0882311F039
:1022E00096E911C0772321F09EE8872F762F05C04D
:1022F000662371F096E8862F70E060E02AF09A95E8
:10230000660F771F881FDAF7880F9695879597F9DC
:102310000895A1E21A2EAA1BBB1BFD010DC0AA1F26
:10232000BB1FEE1FFF1FA217B307E407F50720F03E
:10233000A21BB30BE40BF50B661F771F881F991FB9
:102340001A9469F760957095809590959B01AC0102
:10235000BD01CF010895052E97FB1EF400940E9445
:10236000C21157FD07D00E94891107FC03D04EF41B
:102370000C94C21150954095309521953F4F4F4F89
:102380005F4F089590958095709561957F4F8F4F21
:102390009F4F08950E94D511A59F900DB49F900D59
:1023A000A49F800D911D11240895A29FB001B39F99
:1023B000C001A39F700D811D1124911DB29F700D4E
:1023C000811D1124911D089597FB072E16F400948A
:1023D00007D077FD09D00E94FE1107FC05D03EF41E
:1023E000909581959F4F0895709561957F4F0895C1
:1023F000EE0FFF1F0590F491E02D0994AA1BBB1B63
:1024000051E107C0AA1FBB1FA617B70710F0A61BF4
:10241000B70B881F991F5A95A9F780959095BC0115
:10242000CD0108950F931F93CF93DF9382309105D1
:1024300010F482E090E0E091A402F091A50230E077
:1024400020E0B0E0A0E0309799F42115310509F4BF
:102450004AC0281B390B24303105D8F58A819B816D
:102460006115710589F1FB0193838283FE0111C01F
:10247000408151810281138148175907E0F04817C4
:10248000590799F4109761F012960C9312971396CE
:102490001C933296CF01DF91CF911F910F91089538
:1024A0000093A4021093A502F4CF2115310551F039
:1024B0004217530738F0A901DB019A01BD01DF0182
:1024C000F801C1CFEF01F9CF9093A5028093A40248
:1024D000CDCFFE01E20FF31F81939193225031097A
:1024E00039832883D7CF2091A2023091A302232BD6
:1024F00041F420911501309116013093A3022093ED
:10250000A20220911301309114012115310541F4EB
:102510002DB73EB74091170150911801241B350B80
:10252000E091A202F091A302E217F307A0F42E1BA0
:102530003F0B2817390778F0AC014E5F5F4F241727
:10254000350748F04E0F5F1F5093A3024093A2023D
:10255000819391939FCFF0E0E0E09CCFCF93DF9306
:102560000097E9F0FC01329713821282A091A40235
:10257000B091A502ED0130E020E01097A1F4208198
:102580003181820F931F2091A2023091A30228175C
:10259000390709F061C0F093A302E093A202DF9132
:1025A000CF910895EA01CE17DF07E8F54A815B81F4
:1025B0009E0141155105B1F7E901FB83EA83499179
:1025C0005991C40FD51FEC17FD0761F480819181EB
:1025D0000296840F951FE9019983888382819381F4
:1025E0009B838A83F0E0E0E012968D919C91139793
:1025F0000097B9F52D913C911197CD010296820F6C
:10260000931F2091A2023091A3022817390739F6AF
:10261000309751F51092A5021092A402B093A30234
:10262000A093A202BCCFD383C28340815181840F87
:10263000951FC817D90761F44E5F5F4F8881998154
:10264000480F591F518340838A819B8193838283E2
:102650002115310509F0B0CFF093A502E093A40253
:102660009ECFFD01DC01C0CF13821282D7CFFB01C8
:10267000DC0102C001900D9241505040D8F70895FE
:04268000F894FFCFFC
:1026840000C18081000000FFFFFFFF00E1000000A7
:102694000000000000A602800000000000FB047798
:1026A4000539051E05000000007002D90491028658
:1026B40002D8029602B402564D4450565F317C3122
:1026C4005F564D4450560A00564D4450525F0056D2
:1026D4004D4450455F003A323A007C005F564D4409
:0626E4005045000D0A0044
:00000001FF
